:200000000C9468000C9490000C9490000C9490000C9490000C9490000C9490000C94900088
:200020000C9490000C9490000C9490000C9490000C9490000C9490000C9490000C94900040
:200040000C948F040C9490000C945D040C9437040C9490000C9490000C9490000C949000A1
:200060000C94D9040C949000000000080002010000030407000000000000000000000000BA
:20008000250028002B0000000000240027002A000404040404040404020202020202030341
:2000A0000303030301020408102040800102040810200102040810203136206368616E6E28
:2000C000656C2050574D2074657374210000070611241FBECFEFD4E0DEBFCDBF11E0A0E00F
:2000E000B1E0ECE2F6E102C005900D92AA32B107D9F722E0AAE2B1E001C01D92A539B2074A
:20010000E1F710E0C8E6D0E004C02197FE010E948F08C736D107C9F70E9443060C94140BC6
:200120000C940000382F2091E6019091E501213208F049C08091C2018111FCCF42E040939F
:20014000C2013093C1013FEF3093C0011092BF012093BE01A5ECB1E04EE951E0FA013E2FDF
:20016000341B321718F43D913193F9CF10929D0120919D01990F922B90939D0190919C010E
:20018000913061F410929C0190919D019093BB009091BC0093FDF8CF95EC01C095EE909351
:2001A000BC009091C2019230E1F39091C0019F3F79F08091C001803241F08091C0018033A6
:2001C00031F084E005C081E003C082E001C083E01092C4011092E6011092C30108952FB752
:2001E000F8948091980190919901A0919A01B0919B012FBF8093EF019093F001A093F1013B
:20020000B093F201E091E701F091E8010680F781E02D87EE91E0099597FF26C02FB7F89468
:200220008091980190919901A0919A01B0919B012FBF4091EF015091F0016091F10170914B
:20024000F201841B950BA60BB70B4091EB015091EC016091ED017091EE0184179507A607BB
:20026000B70780F28FEF9FEF0895CF92DF92EF92FF920F931F93CF93DF936C017A018B0125
:20028000C0E0D0E0CE15DF0589F0D8016D918D01D601ED91FC910190F081E02DC601099513
:2002A000892B11F47E0102C02196ECCFC701DF91CF911F910F91FF90EF90DF90CF90089571
:2002C000FC01918D828D981761F0828DDF01A80FB11D5D968C91928D9F5F9F73928F90E0B0
:2002E00008958FEF9FEF0895FC01918D828D981731F0828DE80FF11D858D90E008958FEF0D
:200300009FEF0895FC01918D228D892F90E0805C9F4F821B91098F739927089587EE91E07A
:200320000E94820121E0892B09F420E0822F0895FC01848DDF01A80FB11DA35ABF4F2C915D
:20034000848D90E001968F739927848FA689B7892C93A089B1898C9180648C93938D848DCE
:20036000981306C00288F389E02D80818F7D80830895EF92FF920F931F93CF93DF93EC0125
:2003800081E0888F9B8D8C8D981305C0E889F989808185FD24C0F62E0B8D10E00F5F1F4F52
:2003A0000F731127E02E8C8DE8120CC00FB607FCFACFE889F989808185FFF5CFCE010E9458
:2003C0009801F1CF8B8DFE01E80FF11DE35AFF4FF0820B8FEA89FB898081806207C0EE89F9
:2003E000FF896083E889F98980818064808381E090E0DF91CF911F910F91FF90EF9008951B
:20040000CF93DF93EC01888D8823C9F0EA89FB89808185FD05C0A889B9898C9186FD0FC081
:200420000FB607FCF5CF808185FFF2CFA889B9898C9185FFEDCFCE010E949801E7CFDF91EA
:20044000CF91089580E090E0892B29F00E948E0181110C940000089590E0FC01E859FF4F06
:200460003491FC01EC55FF4F2491FC01E057FF4FE491EE2309F43BC0332339F1333091F012
:2004800038F43130A9F0323001F584B58F7D12C0373091F03830A1F03430B9F48091800044
:2004A0008F7D03C0809180008F77809380000DC084B58F7784BD09C08091B0008F7703C0A3
:2004C0008091B0008F7D8093B000F0E0EE0FFF1FE458FF4FA591B4918FB7F894EC916111DB
:2004E00003C020952E2301C02E2B2C938FBF08953FB7F8948091720190917301A09174012E
:20050000B091750126B5A89B05C02F3F19F00196A11DB11D3FBFBA2FA92F982F8827820FE1
:20052000911DA11DB11DBC01CD0142E0660F771F881F991F4A95D1F708958F929F92AF9293
:20054000BF92CF92DF92EF92FF926B017C010E9478024B015C01C114D104E104F104F1F053
:200560000E947802DC01CB0188199909AA09BB09883E9340A105B10570F321E0C21AD108EE
:20058000E108F10888EE880E83E0981EA11CB11CC114D104E104F10419F7DDCFFF90EF907C
:2005A000DF90CF90BF90AF909F908F90089585ED8093BC008091BC0084FDFCCF1092C20135
:2005C000089540914C01262F30E0240F311D21323105DCF42091C2012430C9F4FC0180E03F
:2005E00090E0861758F430914C012191DC01A65DBE4FA30FB11D2C930196F3CF80914C01FF
:20060000680F60934C0180E0089581E0089582E008950895E091770180917601E81730F4F8
:20062000F0E0E858FE4F808190E008958FEF9FEF08959091770180917601981750F4E92F7A
:20064000F0E0E858FE4F208130E09F5F9093770102C02FEF3FEFC90108958091760190E086
:2006600020917701821B91090895CF92DF92EF92FF920F931F93CF93DF937C01262F972FD9
:200680008A018091C301882391F0C62FD72F6E01C40ED51ECC15DD0571F06991D701ED912B
:2006A000FC910190F081E02DC7010995F3CF642F822F0E94E102C801DF91CF911F910F91C4
:2006C000FF90EF90DF90CF900895CF93DF931F92CDB7DEB769832091C3012223D1F02091EB
:2006E000E601203240F021E030E0FC013383228380E090E015C08091C401E82FF0E0EB5388
:20070000FE4F998190838F5F8093C4018093E60105C061E0CE0101960E94E10281E090E0DD
:200720000F90DF91CF910895CF93C62F9091900221E02093C3019093E5011092C401109219
:20074000E601682F84E892E00E9465036C2F84E892E00E94650381E0CF910C949200682F26
:2007600084E892E00C9465030F931F93CF93DF93082FD92F162FC72F8091900291E09093BA
:20078000C3018093E5011092C4011092E60166E084E892E00E946503802F9D2F0E94AF03AF
:2007A0008D2F90E00E94AF03812F9C2F0E94AF038C2F90E00E94AF0381E0DF91CF911F918A
:2007C0000F910C949200009769F0FC0101900020E9F73197AF01481B590BBC0187EE91E0E7
:2007E0000C94350180E090E00895811520E1920710F08FEF9FE08F3F2FE0920729F460E0B6
:2008000070E080E090E108C0009719F460E070E101C0BC0180E090E00C94B4030E948C0ADD
:200820000F931F93CF93DF93EC0188819981009729F02A813B812617370788F48B016F5F18
:200840007F4F0E94C209009761F0998388831B830A832C813D81232B11F4FC01108281E075
:2008600001C080E0DF91CF911F910F9108951F920F920FB60F9211242F933F934F935F9345
:200880006F937F938F939F93AF93BF93EF93FF9387EE91E00E949801FF91EF91BF91AF9187
:2008A0009F918F917F916F915F914F913F912F910F900FBE0F901F9018951F920F920FB6FA
:2008C0000F9211242F938F939F93EF93FF93E091F701F091F8018081E091FD01F091FE0145
:2008E00082FD12C09081809100028F5F8F7320910102821751F0E0910002F0E0E951FE4F3B
:20090000958F8093000201C08081FF91EF919F918F912F910F900FBE0F901F9018951F92A4
:200920000F920FB60F9211242F933F938F939F93AF93BF938091980190919901A0919A01CE
:20094000B0919B013091710123E0230F2D3720F40196A11DB11D05C026E8230F0296A11D5C
:20096000B11D209371018093980190939901A0939A01B0939B018091720190917301A09124
:200980007401B09175010196A11DB11D8093720190937301A0937401B0937501BF91AF91FA
:2009A0009F918F913F912F910F900FBE0F901F9018951F920F920FB60F9211242F933F936F
:2009C0004F935F936F937F938F939F93AF93BF93EF93FF938091B900887F803609F49CC053
:2009E00068F5883209F45BC090F4803109F454C038F4882309F4F6C0883009F44DC0F6C080
:200A0000883109F44CC0803209F45DC0EFC0803409F468C048F4803309F455C0883309F00B
:200A2000E5C08093C001D8C0803509F44FC0883509F45DC0883409F0D9C0D6C0883909F46B
:200A4000C7C0A8F4883709F467C038F4883609F463C0803709F460C0C9C0883809F4B8C0F4
:200A6000803909F45FC0803809F0C0C05BC0803B09F486C038F4803A09F466C0883A09F48F
:200A80007FC0B4C0803C09F4A7C0883C09F4A4C0883B09F48AC0AAC080919D0110C090914A
:200AA000BF018091BE01981770F5E091BF0181E08E0F8093BF01F0E0E256FE4F8081809327
:200AC000BB0085EC86C08093C0018EC0E091BF0181E08E0F8093BF018091BB00F0E0E256AC
:200AE000FE4F80839091BF018091BE016EC0E091BF0181E08E0F8093BF018091BB00F0E029
:200B0000E256FE4F80838091C10181116DC081E080939C0184EA61C083E08093C201109240
:200B20007001CFCF80917001803208F051C0E091700181E08E0F809370018091BB00F0E069
:200B4000E05BFE4F8083BDCF85EC8093BC001092C20180917001803230F4E0917001F0E0CF
:200B6000E05BFE4F10826091700170E0E0914E01F0914F0180E591E009951092700136C09B
:200B800084E08093C20110924D0110924C01E0914A01F0914B01099580914C01811105C060
:200BA00081E080934C0110922A01E0914D0181E08E0F80934D01F0E0E65DFE4F8081809315
:200BC000BB0090914D0180914C01981708F479CF85E88093BC000AC085EC8093BC001092B2
:200BE000C20104C01092C0010E94D702FF91EF91BF91AF919F918F917F916F915F914F91C0
:200C00003F912F910F900FBE0F901F901895E7EEF1E01382128288EE93E0A0E0B0E084830E
:200C20009583A683B7832AE031E03183208325EC30E03587248724EC30E03787268720ECA8
:200C400030E0318B208B21EC30E0338B228B22EC30E0358B248B26EC30E0378B268B118ED4
:200C6000128E138E148EE4E8F2E01382128284839583A683B7838AE191E09183808380E4F1
:200C8000809390020895CF93DF93CDB7DEB7A7970FB6F894DEBF0FBECDBF789484B5826079
:200CA00084BD84B5816084BD85B5826085BD85B5816085BD80916E00816080936E0010925A
:200CC00081008091810082608093810080918100816080938100809180008160809380007F
:200CE0008091B10084608093B1008091B00081608093B00080917A00846080937A00809118
:200D00007A00826080937A0080917A00816080937A0080917A00806880937A001092C1008E
:200D2000E1EBF0E02491EDE9F0E08491882399F090E0880F991FFC01EA57FF4FA591B491AD
:200D4000FC01E458FF4F859194918FB7F894EC91E22BEC938FBFE091F701F091F80182E063
:200D60008083E091F301F091F4011082E091F501F091F6018FEC80831092FF01E091FB0197
:200D8000F091FC0186E08083E091F901F091FA01808180618083E091F901F091FA018081B8
:200DA00088608083E091F901F091FA01808180688083E091F901F091FA0180818F7D80837E
:200DC00008EB10E0F8016491611144C086E291E00E94E30310927701109276011092C401D1
:200DE0001092E6011092C20111E01093C10110929C0161E082E10E942C0261E083E10E94B5
:200E00002C028091B9008E7F8093B9008091B9008D7F8093B90088E48093B80085E48093AC
:200E2000BC0060E080E00E949403809190021093C3018093E5011092C4011092E60160E0EA
:200E400084E892E00E94650381E00E9492008091900210C0E091E701F091E8010190F081DD
:200E6000E02D87EE91E009950F5F1F4F892B09F0A9CFACCF9091C2019111FCCF91E0909380
:200E8000C2019093C1012FEF2093C0011092BF011092BE0190939D0190919D01880F892B8A
:200EA00080939D0180919C01813061F410929C0180919D018093BB008091BC0083FDF8CFFD
:200EC00085EC01C085EE8093BC008091C2018130E1F38091BF01811103C08091BF0101C08D
:200EE00081E0AEE9B1E028E731E0F9019E2F921B981718F49D919193F9CF109277018093D3
:200F0000760184E892E00E941903182F682F6F76606180E00E94940367E88EEF0E9494039C
:200F2000612F80E00E94940365E070E080E090E00E949D02612F616A80E00E9494038AE084
:200F4000882E912CA12CB12C87EE91E00E948201181619060CF0A3C01BA21AA21DA21CA2C7
:200F60001FA21EA260E070E0CE0182960E9410042AA13BA181110DC02115310519F0C9017E
:200F80000E942A091BA21AA21FA21EA21DA21CA222C01FA21EA268E271E0C9010E949A0AF7
:200FA0001AC089831A820EA11FA10F5F1F4FB801CE0182960E941004882369F02AA13BA163
:200FC0008EA19FA1BE016F5F7F4F820F931F0E949A0A1FA30EA30E94EF0097FFE2CF8AA148
:200FE0009BA1009719F00E94A10A03C060E070E0CB016B0161E0F1E0CF16D10409F060E038
:201000008DE00E942C020D2C000CEE08FF08F7FE26C0E091E701F091E8010190F081E02DA4
:201020006DE287EE91E0099522273327A9012C193D094E095F0919A28E010F5D1F4FCA0157
:20104000B901A50194010E946D08605DF80162938F01211531054105510589F715C0A70144
:20106000960119A28E010F5D1F4FCA01B901A50194010E946D08605DF80162938F0121156D
:2010800031054105510589F7C8010E94E30386E291E00E94E3038AA19BA10E942A0908E721
:2010A00010E0C8010E94F5036FE070E080E090E00E949D020F5F1F4F083BF1E01F0789F797
:2010C00088E790E00E94F50368EE73E080E090E00E949D020E94220237CFA1E21A2EAA1B81
:2010E000BB1BFD010DC0AA1FBB1FEE1FFF1FA217B307E407F50720F0A21BB30BE40BF50BAD
:20110000661F771F881F991F1A9469F760957095809590959B01AC01BD01CF010895EE0FA2
:20112000FF1F0590F491E02D0994CF93DF938230910510F482E090E0E0919302F0919402BE
:2011400020E030E0C0E0D0E0309711F14081518148175907C0F04817590761F48281938139
:20116000209719F09B838A832BC0909394028093930226C02115310519F04217530718F41E
:201180009A01BE01DF01EF010280F381E02DDCCF2115310509F1281B390B2430310590F47C
:2011A00012968D919C9113976115710521F0FB019383828304C09093940280939302FD015B
:2011C000329644C0FD01E20FF31F81939193225031092D933C933AC020919102309192023C
:2011E000232B41F42091020130910301309392022093910220910001309101012115310575
:2012000041F42DB73EB74091040150910501241B350BE0919102F0919202E217F307A0F4E4
:201220002E1B3F0B2817390778F0AC014E5F5F4F2417350748F04E0F5F1F50939202409358
:2012400091028193919302C0E0E0F0E0CF01DF91CF9108950F931F93CF93DF93009709F478
:201260008CC0FC0132971382128200919302109194020115110581F420813181820F931F9F
:2012800020919102309192022817390779F5F0939202E093910271C0D80140E050E0AE178C
:2012A000BF0750F412962D913C911397AD012115310509F1D901F3CF9D01DA0133832283C3
:2012C00060817181860F971F8217930769F4EC0128813981260F371F2E5F3F4F3183208313
:2012E0008A819B8193838283452B29F4F0939402E093930242C01396FC93EE931297ED01AC
:20130000499159919E01240F351FE217F30771F480819181840F951F029611969C938E93A2
:201320008281938113969C938E931297E0E0F0E0D80112968D919C911397009719F0F80155
:201340008C01F6CF8D919C9198012E5F3F4F820F931F20919102309192022817390769F484
:20136000309729F4109294021092930202C0138212821093920200939102DF91CF911F9152
:201380000F910895A0E0B0E0E8ECF9E00C94E10AEC01009721F4CB010E949508B8C0FC01AF
:2013A000E60FF71F9C0122503109E217F30708F4ACC0D9010D911C91119706171707B0F0D6
:2013C0000530110508F49FC0C80104978617970708F499C002501109061B170B019311938C
:2013E0006D937C93CF010E942A098DC05B01A01AB10A4C01800E911EA0919302B0919402F4
:2014000040E050E0E12CF12C109709F44AC0A815B905D1F56D907C901197630182E0C80E16
:20142000D11CCA14DB0480F1A3014A195B096A0182E0C80ED11C1296BC9012971396AC9113
:20144000B5E0CB16D10440F0B282A38351834083D9016D937C930AC00E5F1F4FC301800F3F
:20146000911FF90191838083EB2DFA2FE114F10431F0D7011396FC93EE93129744C0F0939E
:201480009402E09393023FC08D919C9111974817590708F4AC017D0112960D90BC91A02D77
:2014A000B3CF809191029091920288159905E1F446175707C8F480910001909101010097FE
:2014C00041F48DB79EB74091040150910501841B950BE817F907C8F4F0939202E09391026A
:2014E000F901718360830FC0CB010E9495087C01009759F0A801BE010E94910ACE010E94CE
:201500002A09C70104C0CE0102C080E090E0CDB7DEB7EEE00C94FD0A81E090E0F8940C9420
:20152000140BFB01DC0102C001900D9241505040D8F70895FB01DC0101900D920020E1F733
:2015400008951F93FC0199278827BC01E89411911032E9F3193010F01E30C8F31B3251F0F7
:201560001D3249F4689406C00E94C80A610F711D811D911D119110531A30B0F33EF4909516
:201580008095709561957F4F8F4F9F4F1F910895592F482F372F262F660F771F881F991F30
:2015A000660F771F881F991F620F731F841F951F660F771F881F991F08952F923F924F92ED
:2015C0005F926F927F928F929F92AF92BF92CF92DF92EF92FF920F931F93CF93DF93CDB794
:2015E000DEB7CA1BDB0B0FB6F894DEBF0FBECDBF09942A88398848885F846E847D848C847E
:201600009B84AA84B984C884DF80EE80FD800C811B81AA81B981CE0FD11D0FB6F894DEBF63
:201620000FBECDBFED010895F894FFCF00009502800000000000B90135018201600174010C
:20164000000200000000650335032D0319030A0309030D0A0000FFFFFFFFFFFFFFFFFFFF76
:20166000FFFFFFFFFFFFFFFFFFFFFFFFFFFFFFFFFFFFFFFFFFFFFFFFFFFFFFFFFFFFFFFF8A
:20168000FFFFFFFFFFFFFFFFFFFFFFFFFFFFFFFFFFFFFFFFFFFFFFFFFFFFFFFFFFFFFFFF6A
:2016A000FFFFFFFFFFFFFFFFFFFFFFFFFFFFFFFFFFFFFFFFFFFFFFFFFFFFFFFFFFFFFFFF4A
:2016C000FFFFFFFFFFFFFFFFFFFFFFFFFFFFFFFFFFFFFFFFFFFFFFFFFFFFFFFFFFFFFFFF2A
:203800000C94341C0C94511C0C94511C0C94511C0C94511C0C94511C0C94511C0C94511C5D
:203820000C94511C0C94511C0C94511C0C94511C0C94511C0C94511C0C94511C0C94511C20
:203840000C94511C0C94511C0C94511C0C94511C0C94511C0C94511C0C94511C0C94511C00
:203860000C94511C0C94511C11241FBECFEFD4E0DEBFCDBF11E0A0E0B1E0E4EAFFE302C00D
:2038800005900D92A230B107D9F712E0A2E0B1E001C01D92AD30B107E1F70E94361D0C9423
:2038A000D01F0C94001C982F9595959595959595905D8F708A307CF0282F295A8091C00031
:2038C00085FFFCCF9093C6008091C00085FFFCCF2093C6000895282F205DF0CF982F80910F
:2038E000C00085FFFCCF9093C6000895EF92FF920F931F93EE24FF2487018091C00087FDBB
:2039000017C00894E11CF11C011D111D81E4E81682E4F8068FE0080780E0180770F3E09146
:203920000401F091050109958091C00087FFE9CF8091C6001F910F91FF90EF9008950E94DA
:20394000761C982F8091C00085FFFCCF9093C60091362CF490330CF09053892F089597553B
:20396000892F08951F930E949F1C182F0E949F1C1295107F810F1F910895882351F0982F79
:2039800091508091C00087FFFCCF8091C6009923B9F708951F93182F0E94761C803249F02C
:2039A000809103018F5F809303018530C1F01F9108958091C00085FFFCCF84E18093C600DC
:2039C0008091C00085FFFCCF1093C6008091C00085FFFCCF80E18093C6001F910895E09146
:2039E0000401F091050109951F9108950E94761C803241F0809103018F5F8093030185306A
:203A000081F008958091C00085FFFCCF84E18093C6008091C00085FFFCCF80E18093C600E0
:203A20000895E0910401F09105010995089510920A028823D1F090E040E951E02D9A28EEF0
:203A400033E0FA013197F1F721503040D1F72D9828EE33E0FA013197F1F721503040D1F7BD
:203A60009F5F981758F380930A0208953F924F925F926F927F928F929F92AF92BF92CF9298
:203A8000DF92EF92FF920F931F93CF93DF93000083E38093C4001092C50088E18093C1009A
:203AA00086E08093C2005098589A259A81E00E94171D44E1F42E3EE1E32E24E9D22E96E001
:203AC000C92E80E1B82EAA24A39401E4902E16E5812EB2E57B2EA0E26A2EF9E45F2EE3E5CA
:203AE0004E2E70E5372E0E94761C8033B1F1813309F441C0803409F479C0813409F48CC06D
:203B0000823471F1853409F47BC0803531F1823521F1813511F1853509F48DC0863509F488
:203B20009DC0843609F4AEC0843709F41BC1853709F485C1863709F47AC0809103018F5F79
:203B400080930301853079F6E0910401F091050109950E94761C803351F60E94F61CC3CF1B
:203B600093E18091C00087FFFCCF8091C6009923A1F39150F6CF0E94761C8032F1F6809104
:203B8000C00085FFFCCFF092C6008091C00085FFFCCF9092C6008091C00085FFFCCF809294
:203BA000C6008091C00085FFFCCF7092C6008091C00085FFFCCF6092C6008091C00085FF2A
:203BC000FCCF5092C6008091C00085FFFCCF4092C6008091C00085FFFCCF3092C600809101
:203BE000C00085FFFCCFB092C6007DCF0E94761C863808F4B2CF0E94761C0E94F61C73CFC9
:203C000094E08091C00087FFFCCF8091C600992309F4A3CF9150F5CF0E94761C8038D1F0BA
:203C2000813861F1823809F499C0883979F080E00E94CA1C58CF0E94761C809306010E9440
:203C4000761C809307010E94F61C4DCF83E00E94CA1C49CF82E00E94CA1C45CF0E94761CB2
:203C6000803309F486C192E08091C00087FFFCCF8091C6009923D9F29150F6CF81E00E94B2
:203C8000CA1C31CF0E94761C809309020E94761C8093080280910C028E7F80930C020E94AC
:203CA000761C853429F480910C02816080930C028091080290910902892B89F000E010E037
:203CC0000E94761CF801E85FFE4F80830F5F1F4F80910802909109020817190788F30E94A1
:203CE000761C803209F029CF80910C0280FFD1C04091060150910701440F551F50930701ED
:203D000040930601A0910802B09109021097C9F0E8E0F1E09A01BD016E0F7F1FF999FECF76
:203D200032BD21BD819180BDFA9AF99A2F5F3F4FE617F70799F74A0F5B1F50930701409308
:203D400006018091C00085FFFCCFF092C6008091C00085FFFCCFB092C600C5CE80E10E9436
:203D6000CA1CC1CE0E94761C809309020E94761C809308028091060190910701880F991F9B
:203D800090930701809306010E94761C853409F47AC080910C028E7F80930C020E94761C39
:203DA000803209F0A0CE8091C00085FFFCCFF092C600A0910802B09109021097B9F1809199
:203DC0000C02182F1170082F0270E0910601F09107019F012F5F3F4FB90140E050E0112369
:203DE000B1F4002339F494918091C00085FFFCCF9093C6004F5F5F4FCB010196F9014A1786
:203E00005B0780F4BC012F5F3F4F112351F3F999FECFF2BDE1BDF89A90B58091C00085FFA3
:203E2000FCCFE6CF70930701609306018091C00085FDD9CE8091C00085FFF8CFD4CE0E94A3
:203E4000761C803209F079CE8091C00085FFFCCFF092C6008091C00085FFFCCFE092C6001E
:203E60008091C00085FFFCCFD092C6008091C00085FFFCCFC092C6008091C00085FFFCCFA2
:203E8000B092C60030CE80910C02816080930C0285CF809107018823880F880B8A218093FB
:203EA0000B028091060190910701880F991F90930701809306018091080280FF09C08091AC
:203EC00008029091090201969093090280930802F894F999FECF1127E0910601F0910701A6
:203EE000C8E0D1E08091080290910902103091F40091570001700130D9F303E0009357003A
:203F0000E8950091570001700130D9F301E100935700E895099019900091570001700130B9
:203F2000D9F301E000935700E8951395103498F011270091570001700130D9F305E00093F3
:203F40005700E8950091570001700130D9F301E100935700E8953296029709F0C7CF1030BE
:203F600011F00296E5CF11248091C00085FFE9CEECCE0E94761C0E94761C182F0E94761C16
:203F8000112351F0113021F086E00E94CA1CABCD84E90E94CA1CA7CD8EE10E94CA1CA3CD24
:063FA000F894FFCF800041
:00000001FF
